{
  "contractName": "TemiiNFT",
  "abi": [
    {
      "inputs": [],
      "stateMutability": "nonpayable",
      "type": "constructor"
    },
    {
      "anonymous": false,
      "inputs": [
        {
          "indexed": true,
          "internalType": "address",
          "name": "owner",
          "type": "address"
        },
        {
          "indexed": true,
          "internalType": "address",
          "name": "approved",
          "type": "address"
        },
        {
          "indexed": true,
          "internalType": "uint256",
          "name": "tokenId",
          "type": "uint256"
        }
      ],
      "name": "Approval",
      "type": "event"
    },
    {
      "anonymous": false,
      "inputs": [
        {
          "indexed": true,
          "internalType": "address",
          "name": "owner",
          "type": "address"
        },
        {
          "indexed": true,
          "internalType": "address",
          "name": "operator",
          "type": "address"
        },
        {
          "indexed": false,
          "internalType": "bool",
          "name": "approved",
          "type": "bool"
        }
      ],
      "name": "ApprovalForAll",
      "type": "event"
    },
    {
      "anonymous": false,
      "inputs": [
        {
          "indexed": true,
          "internalType": "address",
          "name": "previousOwner",
          "type": "address"
        },
        {
          "indexed": true,
          "internalType": "address",
          "name": "newOwner",
          "type": "address"
        }
      ],
      "name": "OwnershipTransferred",
      "type": "event"
    },
    {
      "anonymous": false,
      "inputs": [
        {
          "indexed": true,
          "internalType": "address",
          "name": "from",
          "type": "address"
        },
        {
          "indexed": true,
          "internalType": "address",
          "name": "to",
          "type": "address"
        },
        {
          "indexed": true,
          "internalType": "uint256",
          "name": "tokenId",
          "type": "uint256"
        }
      ],
      "name": "Transfer",
      "type": "event"
    },
    {
      "inputs": [
        {
          "internalType": "address",
          "name": "to",
          "type": "address"
        },
        {
          "internalType": "uint256",
          "name": "tokenId",
          "type": "uint256"
        }
      ],
      "name": "approve",
      "outputs": [],
      "stateMutability": "nonpayable",
      "type": "function"
    },
    {
      "inputs": [
        {
          "internalType": "address",
          "name": "owner",
          "type": "address"
        }
      ],
      "name": "balanceOf",
      "outputs": [
        {
          "internalType": "uint256",
          "name": "",
          "type": "uint256"
        }
      ],
      "stateMutability": "view",
      "type": "function",
      "constant": true
    },
    {
      "inputs": [
        {
          "internalType": "uint256",
          "name": "tokenId",
          "type": "uint256"
        }
      ],
      "name": "getApproved",
      "outputs": [
        {
          "internalType": "address",
          "name": "",
          "type": "address"
        }
      ],
      "stateMutability": "view",
      "type": "function",
      "constant": true
    },
    {
      "inputs": [
        {
          "internalType": "address",
          "name": "owner",
          "type": "address"
        },
        {
          "internalType": "address",
          "name": "operator",
          "type": "address"
        }
      ],
      "name": "isApprovedForAll",
      "outputs": [
        {
          "internalType": "bool",
          "name": "",
          "type": "bool"
        }
      ],
      "stateMutability": "view",
      "type": "function",
      "constant": true
    },
    {
      "inputs": [],
      "name": "name",
      "outputs": [
        {
          "internalType": "string",
          "name": "",
          "type": "string"
        }
      ],
      "stateMutability": "view",
      "type": "function",
      "constant": true
    },
    {
      "inputs": [],
      "name": "owner",
      "outputs": [
        {
          "internalType": "address",
          "name": "",
          "type": "address"
        }
      ],
      "stateMutability": "view",
      "type": "function",
      "constant": true
    },
    {
      "inputs": [
        {
          "internalType": "uint256",
          "name": "tokenId",
          "type": "uint256"
        }
      ],
      "name": "ownerOf",
      "outputs": [
        {
          "internalType": "address",
          "name": "",
          "type": "address"
        }
      ],
      "stateMutability": "view",
      "type": "function",
      "constant": true
    },
    {
      "inputs": [],
      "name": "renounceOwnership",
      "outputs": [],
      "stateMutability": "nonpayable",
      "type": "function"
    },
    {
      "inputs": [
        {
          "internalType": "address",
          "name": "from",
          "type": "address"
        },
        {
          "internalType": "address",
          "name": "to",
          "type": "address"
        },
        {
          "internalType": "uint256",
          "name": "tokenId",
          "type": "uint256"
        }
      ],
      "name": "safeTransferFrom",
      "outputs": [],
      "stateMutability": "nonpayable",
      "type": "function"
    },
    {
      "inputs": [
        {
          "internalType": "address",
          "name": "from",
          "type": "address"
        },
        {
          "internalType": "address",
          "name": "to",
          "type": "address"
        },
        {
          "internalType": "uint256",
          "name": "tokenId",
          "type": "uint256"
        },
        {
          "internalType": "bytes",
          "name": "_data",
          "type": "bytes"
        }
      ],
      "name": "safeTransferFrom",
      "outputs": [],
      "stateMutability": "nonpayable",
      "type": "function"
    },
    {
      "inputs": [
        {
          "internalType": "address",
          "name": "operator",
          "type": "address"
        },
        {
          "internalType": "bool",
          "name": "approved",
          "type": "bool"
        }
      ],
      "name": "setApprovalForAll",
      "outputs": [],
      "stateMutability": "nonpayable",
      "type": "function"
    },
    {
      "inputs": [
        {
          "internalType": "bytes4",
          "name": "interfaceId",
          "type": "bytes4"
        }
      ],
      "name": "supportsInterface",
      "outputs": [
        {
          "internalType": "bool",
          "name": "",
          "type": "bool"
        }
      ],
      "stateMutability": "view",
      "type": "function",
      "constant": true
    },
    {
      "inputs": [],
      "name": "symbol",
      "outputs": [
        {
          "internalType": "string",
          "name": "",
          "type": "string"
        }
      ],
      "stateMutability": "view",
      "type": "function",
      "constant": true
    },
    {
      "inputs": [
        {
          "internalType": "address",
          "name": "from",
          "type": "address"
        },
        {
          "internalType": "address",
          "name": "to",
          "type": "address"
        },
        {
          "internalType": "uint256",
          "name": "tokenId",
          "type": "uint256"
        }
      ],
      "name": "transferFrom",
      "outputs": [],
      "stateMutability": "nonpayable",
      "type": "function"
    },
    {
      "inputs": [
        {
          "internalType": "address",
          "name": "newOwner",
          "type": "address"
        }
      ],
      "name": "transferOwnership",
      "outputs": [],
      "stateMutability": "nonpayable",
      "type": "function"
    },
    {
      "inputs": [],
      "name": "totalSupply",
      "outputs": [
        {
          "internalType": "uint256",
          "name": "",
          "type": "uint256"
        }
      ],
      "stateMutability": "view",
      "type": "function",
      "constant": true
    },
    {
      "inputs": [],
      "name": "contractURI",
      "outputs": [
        {
          "internalType": "string",
          "name": "",
          "type": "string"
        }
      ],
      "stateMutability": "pure",
      "type": "function",
      "constant": true
    },
    {
      "inputs": [
        {
          "internalType": "address",
          "name": "to",
          "type": "address"
        },
        {
          "internalType": "uint256",
          "name": "tokenId",
          "type": "uint256"
        },
        {
          "internalType": "string",
          "name": "uri",
          "type": "string"
        }
      ],
      "name": "Mint",
      "outputs": [
        {
          "internalType": "uint256",
          "name": "",
          "type": "uint256"
        }
      ],
      "stateMutability": "nonpayable",
      "type": "function"
    },
    {
      "inputs": [
        {
          "internalType": "uint256",
          "name": "tokenId",
          "type": "uint256"
        }
      ],
      "name": "tokenURI",
      "outputs": [
        {
          "internalType": "string",
          "name": "",
          "type": "string"
        }
      ],
      "stateMutability": "view",
      "type": "function",
      "constant": true
    }
  ],
  "bytecode": "0x60806040523480156200001157600080fd5b506040518060400160405280600781526020017f54656d694e4654000000000000000000000000000000000000000000000000008152506040518060400160405280600481526020017f5446545a00000000000000000000000000000000000000000000000000000000815250816000908051906020019062000096929190620001a6565b508060019080519060200190620000af929190620001a6565b505050620000d2620000c6620000d860201b60201c565b620000e060201b60201c565b620002bb565b600033905090565b6000600760009054906101000a900473ffffffffffffffffffffffffffffffffffffffff16905081600760006101000a81548173ffffffffffffffffffffffffffffffffffffffff021916908373ffffffffffffffffffffffffffffffffffffffff1602179055508173ffffffffffffffffffffffffffffffffffffffff168173ffffffffffffffffffffffffffffffffffffffff167f8be0079c531659141344cd1fd0a4f28419497f9722a3daafe3b4186f6b6457e060405160405180910390a35050565b828054620001b49062000285565b90600052602060002090601f016020900481019282620001d8576000855562000224565b82601f10620001f357805160ff191683800117855562000224565b8280016001018555821562000224579182015b828111156200022357825182559160200191906001019062000206565b5b50905062000233919062000237565b5090565b5b808211156200025257600081600090555060010162000238565b5090565b7f4e487b7100000000000000000000000000000000000000000000000000000000600052602260045260246000fd5b600060028204905060018216806200029e57607f821691505b60208210811415620002b557620002b462000256565b5b50919050565b61317680620002cb6000396000f3fe608060405234801561001057600080fd5b50600436106101215760003560e01c8063715018a6116100ad578063b88d4fde11610071578063b88d4fde14610308578063c87b56dd14610324578063e8a3d48514610354578063e985e9c514610372578063f2fde38b146103a257610121565b8063715018a61461027657806385a66b91146102805780638da5cb5b146102b057806395d89b41146102ce578063a22cb465146102ec57610121565b806318160ddd116100f457806318160ddd146101c057806323b872dd146101de57806342842e0e146101fa5780636352211e1461021657806370a082311461024657610121565b806301ffc9a71461012657806306fdde0314610156578063081812fc14610174578063095ea7b3146101a4575b600080fd5b610140600480360381019061013b9190611d84565b6103be565b60405161014d9190611dcc565b60405180910390f35b61015e6104a0565b60405161016b9190611e80565b60405180910390f35b61018e60048036038101906101899190611ed8565b610532565b60405161019b9190611f46565b60405180910390f35b6101be60048036038101906101b99190611f8d565b6105b7565b005b6101c86106cf565b6040516101d59190611fdc565b60405180910390f35b6101f860048036038101906101f39190611ff7565b6106e0565b005b610214600480360381019061020f9190611ff7565b610740565b005b610230600480360381019061022b9190611ed8565b610760565b60405161023d9190611f46565b60405180910390f35b610260600480360381019061025b919061204a565b610812565b60405161026d9190611fdc565b60405180910390f35b61027e6108ca565b005b61029a600480360381019061029591906121ac565b610952565b6040516102a79190611fdc565b60405180910390f35b6102b8610a07565b6040516102c59190611f46565b60405180910390f35b6102d6610a31565b6040516102e39190611e80565b60405180910390f35b61030660048036038101906103019190612247565b610ac3565b005b610322600480360381019061031d9190612328565b610ad9565b005b61033e60048036038101906103399190611ed8565b610b3b565b60405161034b9190611e80565b60405180910390f35b61035c610b4d565b6040516103699190611e80565b60405180910390f35b61038c600480360381019061038791906123ab565b610b6d565b6040516103999190611dcc565b60405180910390f35b6103bc60048036038101906103b7919061204a565b610c01565b005b60007f80ac58cd000000000000000000000000000000000000000000000000000000007bffffffffffffffffffffffffffffffffffffffffffffffffffffffff1916827bffffffffffffffffffffffffffffffffffffffffffffffffffffffff1916148061048957507f5b5e139f000000000000000000000000000000000000000000000000000000007bffffffffffffffffffffffffffffffffffffffffffffffffffffffff1916827bffffffffffffffffffffffffffffffffffffffffffffffffffffffff1916145b80610499575061049882610cf9565b5b9050919050565b6060600080546104af9061241a565b80601f01602080910402602001604051908101604052809291908181526020018280546104db9061241a565b80156105285780601f106104fd57610100808354040283529160200191610528565b820191906000526020600020905b81548152906001019060200180831161050b57829003601f168201915b5050505050905090565b600061053d82610d63565b61057c576040517f08c379a0000000000000000000000000000000000000000000000000000000008152600401610573906124be565b60405180910390fd5b6004600083815260200190815260200160002060009054906101000a900473ffffffffffffffffffffffffffffffffffffffff169050919050565b60006105c282610760565b90508073ffffffffffffffffffffffffffffffffffffffff168373ffffffffffffffffffffffffffffffffffffffff161415610633576040517f08c379a000000000000000000000000000000000000000000000000000000000815260040161062a90612550565b60405180910390fd5b8073ffffffffffffffffffffffffffffffffffffffff16610652610dcf565b73ffffffffffffffffffffffffffffffffffffffff16148061068157506106808161067b610dcf565b610b6d565b5b6106c0576040517f08c379a00000000000000000000000000000000000000000000000000000000081526004016106b7906125e2565b60405180910390fd5b6106ca8383610dd7565b505050565b60006106db6008610e90565b905090565b6106f16106eb610dcf565b82610e9e565b610730576040517f08c379a000000000000000000000000000000000000000000000000000000000815260040161072790612674565b60405180910390fd5b61073b838383610f7c565b505050565b61075b83838360405180602001604052806000815250610ad9565b505050565b6000806002600084815260200190815260200160002060009054906101000a900473ffffffffffffffffffffffffffffffffffffffff169050600073ffffffffffffffffffffffffffffffffffffffff168173ffffffffffffffffffffffffffffffffffffffff161415610809576040517f08c379a000000000000000000000000000000000000000000000000000000000815260040161080090612706565b60405180910390fd5b80915050919050565b60008073ffffffffffffffffffffffffffffffffffffffff168273ffffffffffffffffffffffffffffffffffffffff161415610883576040517f08c379a000000000000000000000000000000000000000000000000000000000815260040161087a90612798565b60405180910390fd5b600360008373ffffffffffffffffffffffffffffffffffffffff1673ffffffffffffffffffffffffffffffffffffffff168152602001908152602001600020549050919050565b6108d2610dcf565b73ffffffffffffffffffffffffffffffffffffffff166108f0610a07565b73ffffffffffffffffffffffffffffffffffffffff1614610946576040517f08c379a000000000000000000000000000000000000000000000000000000000815260040161093d90612804565b60405180910390fd5b61095060006111e3565b565b600061095c610dcf565b73ffffffffffffffffffffffffffffffffffffffff1661097a610a07565b73ffffffffffffffffffffffffffffffffffffffff16146109d0576040517f08c379a00000000000000000000000000000000000000000000000000000000081526004016109c790612804565b60405180910390fd5b6109da60086112a9565b60006109e66008610e90565b90506109f285856112bf565b6109fc84846112dd565b809150509392505050565b6000600760009054906101000a900473ffffffffffffffffffffffffffffffffffffffff16905090565b606060018054610a409061241a565b80601f0160208091040260200160405190810160405280929190818152602001828054610a6c9061241a565b8015610ab95780601f10610a8e57610100808354040283529160200191610ab9565b820191906000526020600020905b815481529060010190602001808311610a9c57829003601f168201915b5050505050905090565b610ad5610ace610dcf565b8383611351565b5050565b610aea610ae4610dcf565b83610e9e565b610b29576040517f08c379a0000000000000000000000000000000000000000000000000000000008152600401610b2090612674565b60405180910390fd5b610b35848484846114be565b50505050565b6060610b468261151a565b9050919050565b60606040518060800160405280604381526020016130fe60439139905090565b6000600560008473ffffffffffffffffffffffffffffffffffffffff1673ffffffffffffffffffffffffffffffffffffffff16815260200190815260200160002060008373ffffffffffffffffffffffffffffffffffffffff1673ffffffffffffffffffffffffffffffffffffffff16815260200190815260200160002060009054906101000a900460ff16905092915050565b610c09610dcf565b73ffffffffffffffffffffffffffffffffffffffff16610c27610a07565b73ffffffffffffffffffffffffffffffffffffffff1614610c7d576040517f08c379a0000000000000000000000000000000000000000000000000000000008152600401610c7490612804565b60405180910390fd5b600073ffffffffffffffffffffffffffffffffffffffff168173ffffffffffffffffffffffffffffffffffffffff161415610ced576040517f08c379a0000000000000000000000000000000000000000000000000000000008152600401610ce490612896565b60405180910390fd5b610cf6816111e3565b50565b60007f01ffc9a7000000000000000000000000000000000000000000000000000000007bffffffffffffffffffffffffffffffffffffffffffffffffffffffff1916827bffffffffffffffffffffffffffffffffffffffffffffffffffffffff1916149050919050565b60008073ffffffffffffffffffffffffffffffffffffffff166002600084815260200190815260200160002060009054906101000a900473ffffffffffffffffffffffffffffffffffffffff1673ffffffffffffffffffffffffffffffffffffffff1614159050919050565b600033905090565b816004600083815260200190815260200160002060006101000a81548173ffffffffffffffffffffffffffffffffffffffff021916908373ffffffffffffffffffffffffffffffffffffffff160217905550808273ffffffffffffffffffffffffffffffffffffffff16610e4a83610760565b73ffffffffffffffffffffffffffffffffffffffff167f8c5be1e5ebec7d5bd14f71427d1e84f3dd0314c0f7b2291e5b200ac8c7c3b92560405160405180910390a45050565b600081600001549050919050565b6000610ea982610d63565b610ee8576040517f08c379a0000000000000000000000000000000000000000000000000000000008152600401610edf90612928565b60405180910390fd5b6000610ef383610760565b90508073ffffffffffffffffffffffffffffffffffffffff168473ffffffffffffffffffffffffffffffffffffffff161480610f6257508373ffffffffffffffffffffffffffffffffffffffff16610f4a84610532565b73ffffffffffffffffffffffffffffffffffffffff16145b80610f735750610f728185610b6d565b5b91505092915050565b8273ffffffffffffffffffffffffffffffffffffffff16610f9c82610760565b73ffffffffffffffffffffffffffffffffffffffff1614610ff2576040517f08c379a0000000000000000000000000000000000000000000000000000000008152600401610fe9906129ba565b60405180910390fd5b600073ffffffffffffffffffffffffffffffffffffffff168273ffffffffffffffffffffffffffffffffffffffff161415611062576040517f08c379a000000000000000000000000000000000000000000000000000000000815260040161105990612a4c565b60405180910390fd5b61106d83838361166c565b611078600082610dd7565b6001600360008573ffffffffffffffffffffffffffffffffffffffff1673ffffffffffffffffffffffffffffffffffffffff16815260200190815260200160002060008282546110c89190612a9b565b925050819055506001600360008473ffffffffffffffffffffffffffffffffffffffff1673ffffffffffffffffffffffffffffffffffffffff168152602001908152602001600020600082825461111f9190612acf565b92505081905550816002600083815260200190815260200160002060006101000a81548173ffffffffffffffffffffffffffffffffffffffff021916908373ffffffffffffffffffffffffffffffffffffffff160217905550808273ffffffffffffffffffffffffffffffffffffffff168473ffffffffffffffffffffffffffffffffffffffff167fddf252ad1be2c89b69c2b068fc378daa952ba7f163c4a11628f55a4df523b3ef60405160405180910390a46111de838383611671565b505050565b6000600760009054906101000a900473ffffffffffffffffffffffffffffffffffffffff16905081600760006101000a81548173ffffffffffffffffffffffffffffffffffffffff021916908373ffffffffffffffffffffffffffffffffffffffff1602179055508173ffffffffffffffffffffffffffffffffffffffff168173ffffffffffffffffffffffffffffffffffffffff167f8be0079c531659141344cd1fd0a4f28419497f9722a3daafe3b4186f6b6457e060405160405180910390a35050565b6001816000016000828254019250508190555050565b6112d9828260405180602001604052806000815250611676565b5050565b6112e682610d63565b611325576040517f08c379a000000000000000000000000000000000000000000000000000000000815260040161131c90612b97565b60405180910390fd5b8060066000848152602001908152602001600020908051906020019061134c929190611c75565b505050565b8173ffffffffffffffffffffffffffffffffffffffff168373ffffffffffffffffffffffffffffffffffffffff1614156113c0576040517f08c379a00000000000000000000000000000000000000000000000000000000081526004016113b790612c03565b60405180910390fd5b80600560008573ffffffffffffffffffffffffffffffffffffffff1673ffffffffffffffffffffffffffffffffffffffff16815260200190815260200160002060008473ffffffffffffffffffffffffffffffffffffffff1673ffffffffffffffffffffffffffffffffffffffff16815260200190815260200160002060006101000a81548160ff0219169083151502179055508173ffffffffffffffffffffffffffffffffffffffff168373ffffffffffffffffffffffffffffffffffffffff167f17307eab39ab6107e8899845ad3d59bd9653f200f220920489ca2b5937696c31836040516114b19190611dcc565b60405180910390a3505050565b6114c9848484610f7c565b6114d5848484846116d1565b611514576040517f08c379a000000000000000000000000000000000000000000000000000000000815260040161150b90612c95565b60405180910390fd5b50505050565b606061152582610d63565b611564576040517f08c379a000000000000000000000000000000000000000000000000000000000815260040161155b90612d27565b60405180910390fd5b60006006600084815260200190815260200160002080546115849061241a565b80601f01602080910402602001604051908101604052809291908181526020018280546115b09061241a565b80156115fd5780601f106115d2576101008083540402835291602001916115fd565b820191906000526020600020905b8154815290600101906020018083116115e057829003601f168201915b50505050509050600061160e611859565b9050600081511415611624578192505050611667565b600082511115611659578082604051602001611641929190612d83565b60405160208183030381529060405292505050611667565b61166284611870565b925050505b919050565b505050565b505050565b6116808383611917565b61168d60008484846116d1565b6116cc576040517f08c379a00000000000000000000000000000000000000000000000000000000081526004016116c390612c95565b60405180910390fd5b505050565b60006116f28473ffffffffffffffffffffffffffffffffffffffff16611af1565b1561184c578373ffffffffffffffffffffffffffffffffffffffff1663150b7a0261171b610dcf565b8786866040518563ffffffff1660e01b815260040161173d9493929190612dfc565b6020604051808303816000875af192505050801561177957506040513d601f19601f820116820180604052508101906117769190612e5d565b60015b6117fc573d80600081146117a9576040519150601f19603f3d011682016040523d82523d6000602084013e6117ae565b606091505b506000815114156117f4576040517f08c379a00000000000000000000000000000000000000000000000000000000081526004016117eb90612c95565b60405180910390fd5b805181602001fd5b63150b7a0260e01b7bffffffffffffffffffffffffffffffffffffffffffffffffffffffff1916817bffffffffffffffffffffffffffffffffffffffffffffffffffffffff191614915050611851565b600190505b949350505050565b606060405180602001604052806000815250905090565b606061187b82610d63565b6118ba576040517f08c379a00000000000000000000000000000000000000000000000000000000081526004016118b190612efc565b60405180910390fd5b60006118c4611859565b905060008151116118e4576040518060200160405280600081525061190f565b806118ee84611b14565b6040516020016118ff929190612d83565b6040516020818303038152906040525b915050919050565b600073ffffffffffffffffffffffffffffffffffffffff168273ffffffffffffffffffffffffffffffffffffffff161415611987576040517f08c379a000000000000000000000000000000000000000000000000000000000815260040161197e90612f68565b60405180910390fd5b61199081610d63565b156119d0576040517f08c379a00000000000000000000000000000000000000000000000000000000081526004016119c790612fd4565b60405180910390fd5b6119dc6000838361166c565b6001600360008473ffffffffffffffffffffffffffffffffffffffff1673ffffffffffffffffffffffffffffffffffffffff1681526020019081526020016000206000828254611a2c9190612acf565b92505081905550816002600083815260200190815260200160002060006101000a81548173ffffffffffffffffffffffffffffffffffffffff021916908373ffffffffffffffffffffffffffffffffffffffff160217905550808273ffffffffffffffffffffffffffffffffffffffff16600073ffffffffffffffffffffffffffffffffffffffff167fddf252ad1be2c89b69c2b068fc378daa952ba7f163c4a11628f55a4df523b3ef60405160405180910390a4611aed60008383611671565b5050565b6000808273ffffffffffffffffffffffffffffffffffffffff163b119050919050565b60606000821415611b5c576040518060400160405280600181526020017f30000000000000000000000000000000000000000000000000000000000000008152509050611c70565b600082905060005b60008214611b8e578080611b7790612ff4565b915050600a82611b87919061306c565b9150611b64565b60008167ffffffffffffffff811115611baa57611ba9612081565b5b6040519080825280601f01601f191660200182016040528015611bdc5781602001600182028036833780820191505090505b5090505b60008514611c6957600182611bf59190612a9b565b9150600a85611c04919061309d565b6030611c109190612acf565b60f81b818381518110611c2657611c256130ce565b5b60200101907effffffffffffffffffffffffffffffffffffffffffffffffffffffffffffff1916908160001a905350600a85611c62919061306c565b9450611be0565b8093505050505b919050565b828054611c819061241a565b90600052602060002090601f016020900481019282611ca35760008555611cea565b82601f10611cbc57805160ff1916838001178555611cea565b82800160010185558215611cea579182015b82811115611ce9578251825591602001919060010190611cce565b5b509050611cf79190611cfb565b5090565b5b80821115611d14576000816000905550600101611cfc565b5090565b6000604051905090565b600080fd5b600080fd5b60007fffffffff0000000000000000000000000000000000000000000000000000000082169050919050565b611d6181611d2c565b8114611d6c57600080fd5b50565b600081359050611d7e81611d58565b92915050565b600060208284031215611d9a57611d99611d22565b5b6000611da884828501611d6f565b91505092915050565b60008115159050919050565b611dc681611db1565b82525050565b6000602082019050611de16000830184611dbd565b92915050565b600081519050919050565b600082825260208201905092915050565b60005b83811015611e21578082015181840152602081019050611e06565b83811115611e30576000848401525b50505050565b6000601f19601f8301169050919050565b6000611e5282611de7565b611e5c8185611df2565b9350611e6c818560208601611e03565b611e7581611e36565b840191505092915050565b60006020820190508181036000830152611e9a8184611e47565b905092915050565b6000819050919050565b611eb581611ea2565b8114611ec057600080fd5b50565b600081359050611ed281611eac565b92915050565b600060208284031215611eee57611eed611d22565b5b6000611efc84828501611ec3565b91505092915050565b600073ffffffffffffffffffffffffffffffffffffffff82169050919050565b6000611f3082611f05565b9050919050565b611f4081611f25565b82525050565b6000602082019050611f5b6000830184611f37565b92915050565b611f6a81611f25565b8114611f7557600080fd5b50565b600081359050611f8781611f61565b92915050565b60008060408385031215611fa457611fa3611d22565b5b6000611fb285828601611f78565b9250506020611fc385828601611ec3565b9150509250929050565b611fd681611ea2565b82525050565b6000602082019050611ff16000830184611fcd565b92915050565b6000806000606084860312156120105761200f611d22565b5b600061201e86828701611f78565b935050602061202f86828701611f78565b925050604061204086828701611ec3565b9150509250925092565b6000602082840312156120605761205f611d22565b5b600061206e84828501611f78565b91505092915050565b600080fd5b600080fd5b7f4e487b7100000000000000000000000000000000000000000000000000000000600052604160045260246000fd5b6120b982611e36565b810181811067ffffffffffffffff821117156120d8576120d7612081565b5b80604052505050565b60006120eb611d18565b90506120f782826120b0565b919050565b600067ffffffffffffffff82111561211757612116612081565b5b61212082611e36565b9050602081019050919050565b82818337600083830152505050565b600061214f61214a846120fc565b6120e1565b90508281526020810184848401111561216b5761216a61207c565b5b61217684828561212d565b509392505050565b600082601f83011261219357612192612077565b5b81356121a384826020860161213c565b91505092915050565b6000806000606084860312156121c5576121c4611d22565b5b60006121d386828701611f78565b93505060206121e486828701611ec3565b925050604084013567ffffffffffffffff81111561220557612204611d27565b5b6122118682870161217e565b9150509250925092565b61222481611db1565b811461222f57600080fd5b50565b6000813590506122418161221b565b92915050565b6000806040838503121561225e5761225d611d22565b5b600061226c85828601611f78565b925050602061227d85828601612232565b9150509250929050565b600067ffffffffffffffff8211156122a2576122a1612081565b5b6122ab82611e36565b9050602081019050919050565b60006122cb6122c684612287565b6120e1565b9050828152602081018484840111156122e7576122e661207c565b5b6122f284828561212d565b509392505050565b600082601f83011261230f5761230e612077565b5b813561231f8482602086016122b8565b91505092915050565b6000806000806080858703121561234257612341611d22565b5b600061235087828801611f78565b945050602061236187828801611f78565b935050604061237287828801611ec3565b925050606085013567ffffffffffffffff81111561239357612392611d27565b5b61239f878288016122fa565b91505092959194509250565b600080604083850312156123c2576123c1611d22565b5b60006123d085828601611f78565b92505060206123e185828601611f78565b9150509250929050565b7f4e487b7100000000000000000000000000000000000000000000000000000000600052602260045260246000fd5b6000600282049050600182168061243257607f821691505b60208210811415612446576124456123eb565b5b50919050565b7f4552433732313a20617070726f76656420717565727920666f72206e6f6e657860008201527f697374656e7420746f6b656e0000000000000000000000000000000000000000602082015250565b60006124a8602c83611df2565b91506124b38261244c565b604082019050919050565b600060208201905081810360008301526124d78161249b565b9050919050565b7f4552433732313a20617070726f76616c20746f2063757272656e74206f776e6560008201527f7200000000000000000000000000000000000000000000000000000000000000602082015250565b600061253a602183611df2565b9150612545826124de565b604082019050919050565b600060208201905081810360008301526125698161252d565b9050919050565b7f4552433732313a20617070726f76652063616c6c6572206973206e6f74206f7760008201527f6e6572206e6f7220617070726f76656420666f7220616c6c0000000000000000602082015250565b60006125cc603883611df2565b91506125d782612570565b604082019050919050565b600060208201905081810360008301526125fb816125bf565b9050919050565b7f4552433732313a207472616e736665722063616c6c6572206973206e6f74206f60008201527f776e6572206e6f7220617070726f766564000000000000000000000000000000602082015250565b600061265e603183611df2565b915061266982612602565b604082019050919050565b6000602082019050818103600083015261268d81612651565b9050919050565b7f4552433732313a206f776e657220717565727920666f72206e6f6e657869737460008201527f656e7420746f6b656e0000000000000000000000000000000000000000000000602082015250565b60006126f0602983611df2565b91506126fb82612694565b604082019050919050565b6000602082019050818103600083015261271f816126e3565b9050919050565b7f4552433732313a2062616c616e636520717565727920666f7220746865207a6560008201527f726f206164647265737300000000000000000000000000000000000000000000602082015250565b6000612782602a83611df2565b915061278d82612726565b604082019050919050565b600060208201905081810360008301526127b181612775565b9050919050565b7f4f776e61626c653a2063616c6c6572206973206e6f7420746865206f776e6572600082015250565b60006127ee602083611df2565b91506127f9826127b8565b602082019050919050565b6000602082019050818103600083015261281d816127e1565b9050919050565b7f4f776e61626c653a206e6577206f776e657220697320746865207a65726f206160008201527f6464726573730000000000000000000000000000000000000000000000000000602082015250565b6000612880602683611df2565b915061288b82612824565b604082019050919050565b600060208201905081810360008301526128af81612873565b9050919050565b7f4552433732313a206f70657261746f7220717565727920666f72206e6f6e657860008201527f697374656e7420746f6b656e0000000000000000000000000000000000000000602082015250565b6000612912602c83611df2565b915061291d826128b6565b604082019050919050565b6000602082019050818103600083015261294181612905565b9050919050565b7f4552433732313a207472616e736665722066726f6d20696e636f72726563742060008201527f6f776e6572000000000000000000000000000000000000000000000000000000602082015250565b60006129a4602583611df2565b91506129af82612948565b604082019050919050565b600060208201905081810360008301526129d381612997565b9050919050565b7f4552433732313a207472616e7366657220746f20746865207a65726f2061646460008201527f7265737300000000000000000000000000000000000000000000000000000000602082015250565b6000612a36602483611df2565b9150612a41826129da565b604082019050919050565b60006020820190508181036000830152612a6581612a29565b9050919050565b7f4e487b7100000000000000000000000000000000000000000000000000000000600052601160045260246000fd5b6000612aa682611ea2565b9150612ab183611ea2565b925082821015612ac457612ac3612a6c565b5b828203905092915050565b6000612ada82611ea2565b9150612ae583611ea2565b9250827fffffffffffffffffffffffffffffffffffffffffffffffffffffffffffffffff03821115612b1a57612b19612a6c565b5b828201905092915050565b7f45524337323155524953746f726167653a2055524920736574206f66206e6f6e60008201527f6578697374656e7420746f6b656e000000000000000000000000000000000000602082015250565b6000612b81602e83611df2565b9150612b8c82612b25565b604082019050919050565b60006020820190508181036000830152612bb081612b74565b9050919050565b7f4552433732313a20617070726f766520746f2063616c6c657200000000000000600082015250565b6000612bed601983611df2565b9150612bf882612bb7565b602082019050919050565b60006020820190508181036000830152612c1c81612be0565b9050919050565b7f4552433732313a207472616e7366657220746f206e6f6e20455243373231526560008201527f63656976657220696d706c656d656e7465720000000000000000000000000000602082015250565b6000612c7f603283611df2565b9150612c8a82612c23565b604082019050919050565b60006020820190508181036000830152612cae81612c72565b9050919050565b7f45524337323155524953746f726167653a2055524920717565727920666f722060008201527f6e6f6e6578697374656e7420746f6b656e000000000000000000000000000000602082015250565b6000612d11603183611df2565b9150612d1c82612cb5565b604082019050919050565b60006020820190508181036000830152612d4081612d04565b9050919050565b600081905092915050565b6000612d5d82611de7565b612d678185612d47565b9350612d77818560208601611e03565b80840191505092915050565b6000612d8f8285612d52565b9150612d9b8284612d52565b91508190509392505050565b600081519050919050565b600082825260208201905092915050565b6000612dce82612da7565b612dd88185612db2565b9350612de8818560208601611e03565b612df181611e36565b840191505092915050565b6000608082019050612e116000830187611f37565b612e1e6020830186611f37565b612e2b6040830185611fcd565b8181036060830152612e3d8184612dc3565b905095945050505050565b600081519050612e5781611d58565b92915050565b600060208284031215612e7357612e72611d22565b5b6000612e8184828501612e48565b91505092915050565b7f4552433732314d657461646174613a2055524920717565727920666f72206e6f60008201527f6e6578697374656e7420746f6b656e0000000000000000000000000000000000602082015250565b6000612ee6602f83611df2565b9150612ef182612e8a565b604082019050919050565b60006020820190508181036000830152612f1581612ed9565b9050919050565b7f4552433732313a206d696e7420746f20746865207a65726f2061646472657373600082015250565b6000612f52602083611df2565b9150612f5d82612f1c565b602082019050919050565b60006020820190508181036000830152612f8181612f45565b9050919050565b7f4552433732313a20746f6b656e20616c7265616479206d696e74656400000000600082015250565b6000612fbe601c83611df2565b9150612fc982612f88565b602082019050919050565b60006020820190508181036000830152612fed81612fb1565b9050919050565b6000612fff82611ea2565b91507fffffffffffffffffffffffffffffffffffffffffffffffffffffffffffffffff82141561303257613031612a6c565b5b600182019050919050565b7f4e487b7100000000000000000000000000000000000000000000000000000000600052601260045260246000fd5b600061307782611ea2565b915061308283611ea2565b9250826130925761309161303d565b5b828204905092915050565b60006130a882611ea2565b91506130b383611ea2565b9250826130c3576130c261303d565b5b828206905092915050565b7f4e487b7100000000000000000000000000000000000000000000000000000000600052603260045260246000fdfe68747470733a2f2f697066732e696f2f697066732f516d5339377a4b4d3356327672544d546754355a4a7663746157587a4a723375726e5751696b6869573579563277a2646970667358221220e0e72fb06d9a4b435254d01d710cd93dff43e2fba474da9ce643e44efa04a1dd64736f6c634300080c0033",
  "immutableReferences": {},
  "source": "// SPDX-License-Identifier: MIT\npragma solidity ^0.8.4;\n\nimport \"@openzeppelin/contracts/token/ERC721/ERC721.sol\";\nimport \"@openzeppelin/contracts/token/ERC721/extensions/ERC721URIStorage.sol\";\nimport \"@openzeppelin/contracts/access/Ownable.sol\";\nimport \"@openzeppelin/contracts/utils/Counters.sol\";\n\ncontract TemiiNFT is ERC721, ERC721URIStorage, Ownable {\n    using Counters for Counters.Counter;\n\n    Counters.Counter private _tokenIdCounter;\n\n    constructor() ERC721(\"TemiNFT\", \"TFTZ\") {}\n\n    function totalSupply() public view returns (uint256) {\n        return _tokenIdCounter.current();\n    }\n\n    function contractURI() public pure returns (string memory) {\n        return \"https://ipfs.io/ipfs/QmS97zKM3V2vrTMTgT5ZJvctaWXzJr3urnWQikhiW5yV2w\";\n    }\n\n    function Mint(address to, uint256 tokenId, string memory uri)\n        public\n        onlyOwner\n        returns (uint256)\n    {\n        _tokenIdCounter.increment();\n        uint256 newitemid = _tokenIdCounter.current();\n        _safeMint(to, tokenId);\n        _setTokenURI(tokenId, uri);\n        return newitemid;\n    }\n\n    // The following functions are overrides required by Solidity.\n\n    function _burn(uint256 tokenId) internal override(ERC721, ERC721URIStorage) {\n        super._burn(tokenId);\n    }\n\n    function tokenURI(uint256 tokenId)\n        public\n        view\n        override(ERC721, ERC721URIStorage)\n        returns (string memory)\n    {\n        return super.tokenURI(tokenId);\n    }\n}",
  "sourcePath": "/Users/mac/Blockgames/tem/rink_demo/contracts/TemZNFT.sol",
  "compiler": {
    "name": "solc",
    "version": "0.8.12+commit.f00d7308.Emscripten.clang"
  },
  "schemaVersion": "3.4.6",
  "updatedAt": "2022-03-17T14:14:10.446Z",
  "networkType": "ethereum",
  "devdoc": {
    "kind": "dev",
    "methods": {
      "approve(address,uint256)": {
        "details": "See {IERC721-approve}."
      },
      "balanceOf(address)": {
        "details": "See {IERC721-balanceOf}."
      },
      "getApproved(uint256)": {
        "details": "See {IERC721-getApproved}."
      },
      "isApprovedForAll(address,address)": {
        "details": "See {IERC721-isApprovedForAll}."
      },
      "name()": {
        "details": "See {IERC721Metadata-name}."
      },
      "owner()": {
        "details": "Returns the address of the current owner."
      },
      "ownerOf(uint256)": {
        "details": "See {IERC721-ownerOf}."
      },
      "renounceOwnership()": {
        "details": "Leaves the contract without owner. It will not be possible to call `onlyOwner` functions anymore. Can only be called by the current owner. NOTE: Renouncing ownership will leave the contract without an owner, thereby removing any functionality that is only available to the owner."
      },
      "safeTransferFrom(address,address,uint256)": {
        "details": "See {IERC721-safeTransferFrom}."
      },
      "safeTransferFrom(address,address,uint256,bytes)": {
        "details": "See {IERC721-safeTransferFrom}."
      },
      "setApprovalForAll(address,bool)": {
        "details": "See {IERC721-setApprovalForAll}."
      },
      "supportsInterface(bytes4)": {
        "details": "See {IERC165-supportsInterface}."
      },
      "symbol()": {
        "details": "See {IERC721Metadata-symbol}."
      },
      "transferFrom(address,address,uint256)": {
        "details": "See {IERC721-transferFrom}."
      },
      "transferOwnership(address)": {
        "details": "Transfers ownership of the contract to a new account (`newOwner`). Can only be called by the current owner."
      }
    },
    "version": 1
  },
  "userdoc": {
    "kind": "user",
    "methods": {},
    "version": 1
  }
}